{
  "contractName": "GameVoting",
  "abi": [
    {
      "anonymous": false,
      "inputs": [
        {
          "indexed": false,
          "internalType": "uint256",
          "name": "gameId",
          "type": "uint256"
        },
        {
          "indexed": false,
          "internalType": "string",
          "name": "name",
          "type": "string"
        },
        {
          "indexed": false,
          "internalType": "string",
          "name": "category",
          "type": "string"
        },
        {
          "indexed": false,
          "internalType": "string",
          "name": "author",
          "type": "string"
        },
        {
          "indexed": false,
          "internalType": "string",
          "name": "imageUrl",
          "type": "string"
        }
      ],
      "name": "GameAdded",
      "type": "event"
    },
    {
      "anonymous": false,
      "inputs": [
        {
          "indexed": false,
          "internalType": "uint256",
          "name": "gameId",
          "type": "uint256"
        },
        {
          "indexed": false,
          "internalType": "address",
          "name": "voter",
          "type": "address"
        }
      ],
      "name": "Voted",
      "type": "event"
    },
    {
      "inputs": [],
      "name": "gameCount",
      "outputs": [
        {
          "internalType": "uint256",
          "name": "",
          "type": "uint256"
        }
      ],
      "stateMutability": "view",
      "type": "function",
      "constant": true
    },
    {
      "inputs": [
        {
          "internalType": "uint256",
          "name": "",
          "type": "uint256"
        }
      ],
      "name": "games",
      "outputs": [
        {
          "internalType": "uint256",
          "name": "id",
          "type": "uint256"
        },
        {
          "internalType": "string",
          "name": "name",
          "type": "string"
        },
        {
          "internalType": "string",
          "name": "category",
          "type": "string"
        },
        {
          "internalType": "string",
          "name": "author",
          "type": "string"
        },
        {
          "internalType": "string",
          "name": "imageUrl",
          "type": "string"
        },
        {
          "internalType": "uint256",
          "name": "voteCount",
          "type": "uint256"
        }
      ],
      "stateMutability": "view",
      "type": "function",
      "constant": true
    },
    {
      "inputs": [
        {
          "internalType": "address",
          "name": "",
          "type": "address"
        }
      ],
      "name": "lastVoteTime",
      "outputs": [
        {
          "internalType": "uint256",
          "name": "",
          "type": "uint256"
        }
      ],
      "stateMutability": "view",
      "type": "function",
      "constant": true
    },
    {
      "inputs": [
        {
          "internalType": "address",
          "name": "",
          "type": "address"
        }
      ],
      "name": "voteCountInPeriod",
      "outputs": [
        {
          "internalType": "uint256",
          "name": "",
          "type": "uint256"
        }
      ],
      "stateMutability": "view",
      "type": "function",
      "constant": true
    },
    {
      "inputs": [
        {
          "internalType": "address",
          "name": "",
          "type": "address"
        },
        {
          "internalType": "uint256",
          "name": "",
          "type": "uint256"
        }
      ],
      "name": "voteTimes",
      "outputs": [
        {
          "internalType": "uint256",
          "name": "",
          "type": "uint256"
        }
      ],
      "stateMutability": "view",
      "type": "function",
      "constant": true
    },
    {
      "inputs": [
        {
          "internalType": "address",
          "name": "",
          "type": "address"
        },
        {
          "internalType": "uint256",
          "name": "",
          "type": "uint256"
        }
      ],
      "name": "votes",
      "outputs": [
        {
          "internalType": "bool",
          "name": "",
          "type": "bool"
        }
      ],
      "stateMutability": "view",
      "type": "function",
      "constant": true
    },
    {
      "inputs": [
        {
          "internalType": "string",
          "name": "_name",
          "type": "string"
        },
        {
          "internalType": "string",
          "name": "_category",
          "type": "string"
        },
        {
          "internalType": "string",
          "name": "_author",
          "type": "string"
        },
        {
          "internalType": "string",
          "name": "_imageUrl",
          "type": "string"
        }
      ],
      "name": "addGame",
      "outputs": [],
      "stateMutability": "nonpayable",
      "type": "function"
    },
    {
      "inputs": [
        {
          "internalType": "uint256",
          "name": "_gameId",
          "type": "uint256"
        }
      ],
      "name": "vote",
      "outputs": [],
      "stateMutability": "nonpayable",
      "type": "function"
    },
    {
      "inputs": [
        {
          "internalType": "uint256",
          "name": "_gameId",
          "type": "uint256"
        }
      ],
      "name": "getGame",
      "outputs": [
        {
          "internalType": "uint256",
          "name": "",
          "type": "uint256"
        },
        {
          "internalType": "string",
          "name": "",
          "type": "string"
        },
        {
          "internalType": "string",
          "name": "",
          "type": "string"
        },
        {
          "internalType": "string",
          "name": "",
          "type": "string"
        },
        {
          "internalType": "string",
          "name": "",
          "type": "string"
        },
        {
          "internalType": "uint256",
          "name": "",
          "type": "uint256"
        }
      ],
      "stateMutability": "view",
      "type": "function",
      "constant": true
    },
    {
      "inputs": [],
      "name": "getAllGames",
      "outputs": [
        {
          "components": [
            {
              "internalType": "uint256",
              "name": "id",
              "type": "uint256"
            },
            {
              "internalType": "string",
              "name": "name",
              "type": "string"
            },
            {
              "internalType": "string",
              "name": "category",
              "type": "string"
            },
            {
              "internalType": "string",
              "name": "author",
              "type": "string"
            },
            {
              "internalType": "string",
              "name": "imageUrl",
              "type": "string"
            },
            {
              "internalType": "uint256",
              "name": "voteCount",
              "type": "uint256"
            }
          ],
          "internalType": "struct GameVoting.Game[]",
          "name": "",
          "type": "tuple[]"
        }
      ],
      "stateMutability": "view",
      "type": "function",
      "constant": true
    }
  ],
  "bytecode": "0x608060405234801561001057600080fd5b50611b86806100206000396000f3fe608060405234801561001057600080fd5b506004361061009d5760003560e01c8063a2f77bcc11610066578063a2f77bcc14610171578063c69ebc37146101a6578063d8f6cb6e146101d6578063db1c45f914610206578063e231de07146102245761009d565b8062ae2524146100a25780630121b93f146100d2578063117a5b90146100ee5780634d1975b4146101235780639f2524ee14610141575b600080fd5b6100bc60048036038101906100b79190611209565b610240565b6040516100c991906116fe565b60405180910390f35b6100ec60048036038101906100e79190611331565b610258565b005b61010860048036038101906101039190611331565b610621565b60405161011a969594939291906117b1565b60405180910390f35b61012b61087d565b60405161013891906116fe565b60405180910390f35b61015b60048036038101906101569190611232565b610883565b6040516101689190611683565b60405180910390f35b61018b60048036038101906101869190611331565b6108b2565b60405161019d969594939291906117b1565b60405180910390f35b6101c060048036038101906101bb9190611209565b610bbe565b6040516101cd91906116fe565b60405180910390f35b6101f060048036038101906101eb9190611232565b610bd6565b6040516101fd91906116fe565b60405180910390f35b61020e610bfb565b60405161021b9190611661565b60405180910390f35b61023e6004803603810190610239919061126e565b610f71565b005b60046020528060005260406000206000915090505481565b60008111801561026a57506000548111155b6102a9576040517f08c379a00000000000000000000000000000000000000000000000000000000081526004016102a0906116be565b60405180910390fd5b600260003373ffffffffffffffffffffffffffffffffffffffff1673ffffffffffffffffffffffffffffffffffffffff168152602001908152602001600020600082815260200190815260200160002060009054906101000a900460ff1615610347576040517f08c379a000000000000000000000000000000000000000000000000000000000815260040161033e906116de565b60405180910390fd5b610258600460003373ffffffffffffffffffffffffffffffffffffffff1673ffffffffffffffffffffffffffffffffffffffff1681526020019081526020016000205461039491906118f5565b4211156104255742600460003373ffffffffffffffffffffffffffffffffffffffff1673ffffffffffffffffffffffffffffffffffffffff168152602001908152602001600020819055506000600560003373ffffffffffffffffffffffffffffffffffffffff1673ffffffffffffffffffffffffffffffffffffffff168152602001908152602001600020819055505b60058060003373ffffffffffffffffffffffffffffffffffffffff1673ffffffffffffffffffffffffffffffffffffffff16815260200190815260200160002054106104a6576040517f08c379a000000000000000000000000000000000000000000000000000000000815260040161049d9061169e565b60405180910390fd5b6001600082815260200190815260200160002060050160008154809291906104cd90611a3b565b91905055506001600260003373ffffffffffffffffffffffffffffffffffffffff1673ffffffffffffffffffffffffffffffffffffffff168152602001908152602001600020600083815260200190815260200160002060006101000a81548160ff02191690831515021790555042600360003373ffffffffffffffffffffffffffffffffffffffff1673ffffffffffffffffffffffffffffffffffffffff168152602001908152602001600020600083815260200190815260200160002081905550600560003373ffffffffffffffffffffffffffffffffffffffff1673ffffffffffffffffffffffffffffffffffffffff16815260200190815260200160002060008154809291906105e090611a3b565b91905055507f030b0f8dcd86a031eddb071f91882edeac8173663ba775713b677b42b51be44b8133604051610616929190611719565b60405180910390a150565b600160205280600052604060002060009150905080600001549080600101805461064a90611a09565b80601f016020809104026020016040519081016040528092919081815260200182805461067690611a09565b80156106c35780601f10610698576101008083540402835291602001916106c3565b820191906000526020600020905b8154815290600101906020018083116106a657829003601f168201915b5050505050908060020180546106d890611a09565b80601f016020809104026020016040519081016040528092919081815260200182805461070490611a09565b80156107515780601f1061072657610100808354040283529160200191610751565b820191906000526020600020905b81548152906001019060200180831161073457829003601f168201915b50505050509080600301805461076690611a09565b80601f016020809104026020016040519081016040528092919081815260200182805461079290611a09565b80156107df5780601f106107b4576101008083540402835291602001916107df565b820191906000526020600020905b8154815290600101906020018083116107c257829003601f168201915b5050505050908060040180546107f490611a09565b80601f016020809104026020016040519081016040528092919081815260200182805461082090611a09565b801561086d5780601f106108425761010080835404028352916020019161086d565b820191906000526020600020905b81548152906001019060200180831161085057829003601f168201915b5050505050908060050154905086565b60005481565b60026020528160005260406000206020528060005260406000206000915091509054906101000a900460ff1681565b6000606080606080600080871180156108cd57506000548711155b61090c576040517f08c379a0000000000000000000000000000000000000000000000000000000008152600401610903906116be565b60405180910390fd5b6000600160008981526020019081526020016000206040518060c00160405290816000820154815260200160018201805461094690611a09565b80601f016020809104026020016040519081016040528092919081815260200182805461097290611a09565b80156109bf5780601f10610994576101008083540402835291602001916109bf565b820191906000526020600020905b8154815290600101906020018083116109a257829003601f168201915b505050505081526020016002820180546109d890611a09565b80601f0160208091040260200160405190810160405280929190818152602001828054610a0490611a09565b8015610a515780601f10610a2657610100808354040283529160200191610a51565b820191906000526020600020905b815481529060010190602001808311610a3457829003601f168201915b50505050508152602001600382018054610a6a90611a09565b80601f0160208091040260200160405190810160405280929190818152602001828054610a9690611a09565b8015610ae35780601f10610ab857610100808354040283529160200191610ae3565b820191906000526020600020905b815481529060010190602001808311610ac657829003601f168201915b50505050508152602001600482018054610afc90611a09565b80601f0160208091040260200160405190810160405280929190818152602001828054610b2890611a09565b8015610b755780601f10610b4a57610100808354040283529160200191610b75565b820191906000526020600020905b815481529060010190602001808311610b5857829003601f168201915b505050505081526020016005820154815250509050806000015181602001518260400151836060015184608001518560a001519650965096509650965096505091939550919395565b60056020528060005260406000206000915090505481565b6003602052816000526040600020602052806000526040600020600091509150505481565b60606000805467ffffffffffffffff811115610c40577f4e487b7100000000000000000000000000000000000000000000000000000000600052604160045260246000fd5b604051908082528060200260200182016040528015610c7957816020015b610c6661109e565b815260200190600190039081610c5e5790505b5090506000600190505b6000548111610f6957600160008281526020019081526020016000206040518060c001604052908160008201548152602001600182018054610cc490611a09565b80601f0160208091040260200160405190810160405280929190818152602001828054610cf090611a09565b8015610d3d5780601f10610d1257610100808354040283529160200191610d3d565b820191906000526020600020905b815481529060010190602001808311610d2057829003601f168201915b50505050508152602001600282018054610d5690611a09565b80601f0160208091040260200160405190810160405280929190818152602001828054610d8290611a09565b8015610dcf5780601f10610da457610100808354040283529160200191610dcf565b820191906000526020600020905b815481529060010190602001808311610db257829003601f168201915b50505050508152602001600382018054610de890611a09565b80601f0160208091040260200160405190810160405280929190818152602001828054610e1490611a09565b8015610e615780601f10610e3657610100808354040283529160200191610e61565b820191906000526020600020905b815481529060010190602001808311610e4457829003601f168201915b50505050508152602001600482018054610e7a90611a09565b80601f0160208091040260200160405190810160405280929190818152602001828054610ea690611a09565b8015610ef35780601f10610ec857610100808354040283529160200191610ef3565b820191906000526020600020905b815481529060010190602001808311610ed657829003601f168201915b5050505050815260200160058201548152505082600183610f14919061194b565b81518110610f4b577f4e487b7100000000000000000000000000000000000000000000000000000000600052603260045260246000fd5b60200260200101819052508080610f6190611a3b565b915050610c83565b508091505090565b600080815480929190610f8390611a3b565b91905055506040518060c00160405280600054815260200185815260200184815260200183815260200182815260200160008152506001600080548152602001908152602001600020600082015181600001556020820151816001019080519060200190610ff29291906110d4565b50604082015181600201908051906020019061100f9291906110d4565b50606082015181600301908051906020019061102c9291906110d4565b5060808201518160040190805190602001906110499291906110d4565b5060a082015181600501559050507f03665b99e308574c70ececc1688fd924805e98e6a9e3d5b357f186c09e96d97560005485858585604051611090959493929190611742565b60405180910390a150505050565b6040518060c001604052806000815260200160608152602001606081526020016060815260200160608152602001600081525090565b8280546110e090611a09565b90600052602060002090601f0160209004810192826111025760008555611149565b82601f1061111b57805160ff1916838001178555611149565b82800160010185558215611149579182015b8281111561114857825182559160200191906001019061112d565b5b509050611156919061115a565b5090565b5b8082111561117357600081600090555060010161115b565b5090565b600061118a6111858461185f565b61182e565b9050828152602081018484840111156111a257600080fd5b6111ad8482856119c7565b509392505050565b6000813590506111c481611b22565b92915050565b600082601f8301126111db57600080fd5b81356111eb848260208601611177565b91505092915050565b60008135905061120381611b39565b92915050565b60006020828403121561121b57600080fd5b6000611229848285016111b5565b91505092915050565b6000806040838503121561124557600080fd5b6000611253858286016111b5565b9250506020611264858286016111f4565b9150509250929050565b6000806000806080858703121561128457600080fd5b600085013567ffffffffffffffff81111561129e57600080fd5b6112aa878288016111ca565b945050602085013567ffffffffffffffff8111156112c757600080fd5b6112d3878288016111ca565b935050604085013567ffffffffffffffff8111156112f057600080fd5b6112fc878288016111ca565b925050606085013567ffffffffffffffff81111561131957600080fd5b611325878288016111ca565b91505092959194509250565b60006020828403121561134357600080fd5b6000611351848285016111f4565b91505092915050565b600061136683836115a5565b905092915050565b6113778161197f565b82525050565b60006113888261189f565b61139281856118c2565b9350836020820285016113a48561188f565b8060005b858110156113e057848403895281516113c1858261135a565b94506113cc836118b5565b925060208a019950506001810190506113a8565b50829750879550505050505092915050565b6113fb81611991565b82525050565b600061140c826118aa565b61141681856118d3565b93506114268185602086016119d6565b61142f81611b11565b840191505092915050565b6000611445826118aa565b61144f81856118e4565b935061145f8185602086016119d6565b61146881611b11565b840191505092915050565b60006114806044836118e4565b91507f596f752068617665207265616368656420746865206d6178696d756d206e756d60008301527f626572206f6620766f74657320616c6c6f77656420696e20746869732070657260208301527f696f642e000000000000000000000000000000000000000000000000000000006040830152606082019050919050565b600061150c6014836118e4565b91507f47616d6520646f6573206e6f742065786973742e0000000000000000000000006000830152602082019050919050565b600061154c6025836118e4565b91507f596f75206861766520616c726561647920766f74656420666f7220746869732060008301527f67616d652e0000000000000000000000000000000000000000000000000000006020830152604082019050919050565b600060c0830160008301516115bd6000860182611643565b50602083015184820360208601526115d58282611401565b915050604083015184820360408601526115ef8282611401565b915050606083015184820360608601526116098282611401565b915050608083015184820360808601526116238282611401565b91505060a083015161163860a0860182611643565b508091505092915050565b61164c816119bd565b82525050565b61165b816119bd565b82525050565b6000602082019050818103600083015261167b818461137d565b905092915050565b600060208201905061169860008301846113f2565b92915050565b600060208201905081810360008301526116b781611473565b9050919050565b600060208201905081810360008301526116d7816114ff565b9050919050565b600060208201905081810360008301526116f78161153f565b9050919050565b60006020820190506117136000830184611652565b92915050565b600060408201905061172e6000830185611652565b61173b602083018461136e565b9392505050565b600060a0820190506117576000830188611652565b8181036020830152611769818761143a565b9050818103604083015261177d818661143a565b90508181036060830152611791818561143a565b905081810360808301526117a5818461143a565b90509695505050505050565b600060c0820190506117c66000830189611652565b81810360208301526117d8818861143a565b905081810360408301526117ec818761143a565b90508181036060830152611800818661143a565b90508181036080830152611814818561143a565b905061182360a0830184611652565b979650505050505050565b6000604051905081810181811067ffffffffffffffff8211171561185557611854611ae2565b5b8060405250919050565b600067ffffffffffffffff82111561187a57611879611ae2565b5b601f19601f8301169050602081019050919050565b6000819050602082019050919050565b600081519050919050565b600081519050919050565b6000602082019050919050565b600082825260208201905092915050565b600082825260208201905092915050565b600082825260208201905092915050565b6000611900826119bd565b915061190b836119bd565b9250827fffffffffffffffffffffffffffffffffffffffffffffffffffffffffffffffff038211156119405761193f611a84565b5b828201905092915050565b6000611956826119bd565b9150611961836119bd565b92508282101561197457611973611a84565b5b828203905092915050565b600061198a8261199d565b9050919050565b60008115159050919050565b600073ffffffffffffffffffffffffffffffffffffffff82169050919050565b6000819050919050565b82818337600083830152505050565b60005b838110156119f45780820151818401526020810190506119d9565b83811115611a03576000848401525b50505050565b60006002820490506001821680611a2157607f821691505b60208210811415611a3557611a34611ab3565b5b50919050565b6000611a46826119bd565b91507fffffffffffffffffffffffffffffffffffffffffffffffffffffffffffffffff821415611a7957611a78611a84565b5b600182019050919050565b7f4e487b7100000000000000000000000000000000000000000000000000000000600052601160045260246000fd5b7f4e487b7100000000000000000000000000000000000000000000000000000000600052602260045260246000fd5b7f4e487b7100000000000000000000000000000000000000000000000000000000600052604160045260246000fd5b6000601f19601f8301169050919050565b611b2b8161197f565b8114611b3657600080fd5b50565b611b42816119bd565b8114611b4d57600080fd5b5056fea2646970667358221220c4f597675e6bc48055a47fd652dae458f6f7eaf18b6b2cdad6ba50e3badfc1a764736f6c63430008000033",
  "immutableReferences": {},
  "source": "// SPDX-License-Identifier: MIT\r\npragma solidity ^0.8.0;\r\n\r\ncontract GameVoting {\r\n    struct Game {\r\n        uint id;\r\n        string name;\r\n        string category;\r\n        string author;\r\n        string imageUrl;\r\n        uint voteCount;\r\n    }\r\n\r\n    uint public gameCount;\r\n    mapping(uint => Game) public games;\r\n    mapping(address => mapping(uint => bool)) public votes; // Store whether a user has voted for a game\r\n    mapping(address => mapping(uint => uint)) public voteTimes; // Store the timestamp of each vote by user\r\n\r\n    mapping(address => uint) public lastVoteTime; // Store the last voting time for each user\r\n    mapping(address => uint) public voteCountInPeriod; // Store the number of votes by each user within the limited time period\r\n\r\n    event GameAdded(uint gameId, string name, string category, string author, string imageUrl);\r\n    event Voted(uint gameId, address voter);\r\n\r\n    uint constant VOTING_PERIOD = 10 minutes;\r\n    uint constant MAX_VOTES_PER_PERIOD = 5;\r\n\r\n    function addGame(string memory _name, string memory _category, string memory _author, string memory _imageUrl) public {\r\n        gameCount++;\r\n        games[gameCount] = Game(gameCount, _name, _category, _author, _imageUrl, 0);\r\n        emit GameAdded(gameCount, _name, _category, _author, _imageUrl);\r\n    }\r\n\r\n    function vote(uint _gameId) public {\r\n        require(_gameId > 0 && _gameId <= gameCount, \"Game does not exist.\");\r\n        require(!votes[msg.sender][_gameId], \"You have already voted for this game.\");\r\n\r\n        if (block.timestamp > lastVoteTime[msg.sender] + VOTING_PERIOD) {\r\n            lastVoteTime[msg.sender] = block.timestamp;\r\n            voteCountInPeriod[msg.sender] = 0;\r\n        }\r\n\r\n        require(voteCountInPeriod[msg.sender] < MAX_VOTES_PER_PERIOD, \"You have reached the maximum number of votes allowed in this period.\");\r\n\r\n        games[_gameId].voteCount++;\r\n        votes[msg.sender][_gameId] = true;\r\n        voteTimes[msg.sender][_gameId] = block.timestamp; // Store the vote timestamp\r\n        voteCountInPeriod[msg.sender]++;\r\n        emit Voted(_gameId, msg.sender);\r\n    }\r\n\r\n    function getGame(uint _gameId) public view returns (uint, string memory, string memory, string memory, string memory, uint) {\r\n        require(_gameId > 0 && _gameId <= gameCount, \"Game does not exist.\");\r\n\r\n        Game memory game = games[_gameId];\r\n        return (game.id, game.name, game.category, game.author, game.imageUrl, game.voteCount);\r\n    }\r\n\r\n    function getAllGames() public view returns (Game[] memory) {\r\n        Game[] memory allGames = new Game[](gameCount);\r\n        for (uint i = 1; i <= gameCount; i++) {\r\n            allGames[i - 1] = games[i];\r\n        }\r\n        return allGames;\r\n    }\r\n}\r\n",
  "sourcePath": "E:\\blockchain_eth_ganache\\sample\\blockchain\\contracts\\GameVoting.sol",
  "compiler": {
    "name": "solc",
    "version": "0.8.0+commit.c7dfd78e.Emscripten.clang"
  },
  "schemaVersion": "3.4.16",
  "updatedAt": "2024-06-28T02:13:59.913Z",
  "networkType": "ethereum",
  "devdoc": {
    "kind": "dev",
    "methods": {},
    "version": 1
  },
  "userdoc": {
    "kind": "user",
    "methods": {},
    "version": 1
  }
}